{
  "_format": "hh-sol-artifact-1",
  "contractName": "escrow",
  "sourceName": "contracts/AllInOne.sol",
  "abi": [
    {
      "anonymous": false,
      "inputs": [
        {
          "indexed": false,
          "internalType": "string",
          "name": "email",
          "type": "string"
        },
        {
          "indexed": false,
          "internalType": "uint256",
          "name": "minimum",
          "type": "uint256"
        },
        {
          "indexed": false,
          "internalType": "string",
          "name": "ngo",
          "type": "string"
        },
        {
          "indexed": false,
          "internalType": "string",
          "name": "objective",
          "type": "string"
        },
        {
          "indexed": false,
          "internalType": "string",
          "name": "phone",
          "type": "string"
        },
        {
          "indexed": false,
          "internalType": "uint256",
          "name": "target",
          "type": "uint256"
        },
        {
          "indexed": false,
          "internalType": "address",
          "name": "wallet",
          "type": "address"
        }
      ],
      "name": "Added",
      "type": "event"
    },
    {
      "anonymous": false,
      "inputs": [
        {
          "indexed": false,
          "internalType": "address",
          "name": "sender",
          "type": "address"
        },
        {
          "indexed": false,
          "internalType": "address",
          "name": "receiver",
          "type": "address"
        }
      ],
      "name": "Funded",
      "type": "event"
    },
    {
      "anonymous": false,
      "inputs": [
        {
          "indexed": false,
          "internalType": "string",
          "name": "from",
          "type": "string"
        },
        {
          "indexed": false,
          "internalType": "string",
          "name": "to",
          "type": "string"
        },
        {
          "indexed": false,
          "internalType": "string",
          "name": "vendorName",
          "type": "string"
        },
        {
          "indexed": false,
          "internalType": "string",
          "name": "vendorLocation",
          "type": "string"
        },
        {
          "indexed": false,
          "internalType": "string",
          "name": "amount",
          "type": "string"
        },
        {
          "indexed": false,
          "internalType": "string",
          "name": "date",
          "type": "string"
        }
      ],
      "name": "PaymentDone",
      "type": "event"
    },
    {
      "inputs": [
        {
          "internalType": "string",
          "name": "email",
          "type": "string"
        },
        {
          "internalType": "uint256",
          "name": "minimum",
          "type": "uint256"
        },
        {
          "internalType": "string",
          "name": "ngo",
          "type": "string"
        },
        {
          "internalType": "string",
          "name": "objective",
          "type": "string"
        },
        {
          "internalType": "string",
          "name": "phone",
          "type": "string"
        },
        {
          "internalType": "uint256",
          "name": "target",
          "type": "uint256"
        },
        {
          "internalType": "address",
          "name": "wallet",
          "type": "address"
        }
      ],
      "name": "addCampaign",
      "outputs": [],
      "stateMutability": "nonpayable",
      "type": "function"
    },
    {
      "inputs": [
        {
          "internalType": "address",
          "name": "sender",
          "type": "address"
        },
        {
          "internalType": "address",
          "name": "receiver",
          "type": "address"
        }
      ],
      "name": "checkIfFunder",
      "outputs": [
        {
          "internalType": "bool",
          "name": "",
          "type": "bool"
        }
      ],
      "stateMutability": "view",
      "type": "function"
    },
    {
      "inputs": [
        {
          "internalType": "address payable",
          "name": "receiver",
          "type": "address"
        }
      ],
      "name": "fund",
      "outputs": [],
      "stateMutability": "payable",
      "type": "function"
    },
    {
      "inputs": [],
      "name": "getCampaigns",
      "outputs": [
        {
          "components": [
            {
              "internalType": "string",
              "name": "email",
              "type": "string"
            },
            {
              "internalType": "uint256",
              "name": "minimum",
              "type": "uint256"
            },
            {
              "internalType": "string",
              "name": "ngo",
              "type": "string"
            },
            {
              "internalType": "string",
              "name": "objective",
              "type": "string"
            },
            {
              "internalType": "string",
              "name": "phone",
              "type": "string"
            },
            {
              "internalType": "uint256",
              "name": "target",
              "type": "uint256"
            },
            {
              "internalType": "address",
              "name": "wallet",
              "type": "address"
            }
          ],
          "internalType": "struct escrow.Details[]",
          "name": "",
          "type": "tuple[]"
        }
      ],
      "stateMutability": "view",
      "type": "function"
    },
    {
      "inputs": [],
      "name": "getDetails",
      "outputs": [
        {
          "components": [
            {
              "internalType": "string",
              "name": "from",
              "type": "string"
            },
            {
              "internalType": "string",
              "name": "to",
              "type": "string"
            },
            {
              "internalType": "string",
              "name": "vendorName",
              "type": "string"
            },
            {
              "internalType": "string",
              "name": "vendorLocation",
              "type": "string"
            },
            {
              "internalType": "string",
              "name": "amount",
              "type": "string"
            },
            {
              "internalType": "string",
              "name": "date",
              "type": "string"
            }
          ],
          "internalType": "struct escrow.PaymentDetails[]",
          "name": "",
          "type": "tuple[]"
        }
      ],
      "stateMutability": "view",
      "type": "function"
    },
    {
      "inputs": [
        {
          "internalType": "address",
          "name": "receiver",
          "type": "address"
        }
      ],
      "name": "getTotalDonation",
      "outputs": [
        {
          "internalType": "uint256",
          "name": "",
          "type": "uint256"
        }
      ],
      "stateMutability": "view",
      "type": "function"
    },
    {
      "inputs": [
        {
          "internalType": "address payable",
          "name": "receiver",
          "type": "address"
        },
        {
          "internalType": "address payable",
          "name": "_to",
          "type": "address"
        },
        {
          "internalType": "uint256",
          "name": "amount",
          "type": "uint256"
        }
      ],
      "name": "pay",
      "outputs": [],
      "stateMutability": "nonpayable",
      "type": "function"
    },
    {
      "inputs": [
        {
          "internalType": "string",
          "name": "from",
          "type": "string"
        },
        {
          "internalType": "string",
          "name": "to",
          "type": "string"
        },
        {
          "internalType": "string",
          "name": "vendorName",
          "type": "string"
        },
        {
          "internalType": "string",
          "name": "vendorLocation",
          "type": "string"
        },
        {
          "internalType": "string",
          "name": "amount",
          "type": "string"
        },
        {
          "internalType": "string",
          "name": "date",
          "type": "string"
        }
      ],
      "name": "paymentToVendor",
      "outputs": [],
      "stateMutability": "nonpayable",
      "type": "function"
    },
    {
      "inputs": [
        {
          "internalType": "address",
          "name": "",
          "type": "address"
        }
      ],
      "name": "receiverDonationPair",
      "outputs": [
        {
          "internalType": "uint256",
          "name": "",
          "type": "uint256"
        }
      ],
      "stateMutability": "view",
      "type": "function"
    },
    {
      "inputs": [
        {
          "internalType": "address",
          "name": "",
          "type": "address"
        },
        {
          "internalType": "address",
          "name": "",
          "type": "address"
        }
      ],
      "name": "receiverDonorPair",
      "outputs": [
        {
          "internalType": "bool",
          "name": "",
          "type": "bool"
        }
      ],
      "stateMutability": "view",
      "type": "function"
    },
    {
      "inputs": [
        {
          "internalType": "address",
          "name": "",
          "type": "address"
        }
      ],
      "name": "receiverTargetPair",
      "outputs": [
        {
          "internalType": "uint256",
          "name": "",
          "type": "uint256"
        }
      ],
      "stateMutability": "view",
      "type": "function"
    },
    {
      "inputs": [
        {
          "internalType": "address",
          "name": "receiver",
          "type": "address"
        }
      ],
      "name": "returnMapping",
      "outputs": [
        {
          "internalType": "uint256",
          "name": "",
          "type": "uint256"
        }
      ],
      "stateMutability": "view",
      "type": "function"
    },
    {
      "inputs": [
        {
          "internalType": "address",
          "name": "",
          "type": "address"
        }
      ],
      "name": "totalDonation",
      "outputs": [
        {
          "internalType": "address",
          "name": "receiver",
          "type": "address"
        },
        {
          "internalType": "uint256",
          "name": "amount",
          "type": "uint256"
        }
      ],
      "stateMutability": "view",
      "type": "function"
    }
  ],
  "bytecode": "0x608060405234801561001057600080fd5b5061201b806100206000396000f3fe6080604052600436106100c25760003560e01c80636614531a1161007f578063b3d7618811610059578063b3d7618814610292578063b58dab70146102bb578063fb360828146102f8578063fbbf93a014610335576100c2565b80636614531a14610200578063741b5e461461023e578063a6b0363314610267576100c2565b80631699c732146100c757806323024408146101045780632e873bc0146101205780633409faa81461015d5780636064144a1461019a57806365bdfed1146101c3575b600080fd5b3480156100d357600080fd5b506100ee60048036038101906100e99190611326565b610360565b6040516100fb919061136c565b60405180910390f35b61011e600480360381019061011991906113c5565b6103ac565b005b34801561012c57600080fd5b50610147600480360381019061014291906113f2565b6105ee565b604051610154919061144d565b60405180910390f35b34801561016957600080fd5b50610184600480360381019061017f9190611326565b61061d565b604051610191919061136c565b60405180910390f35b3480156101a657600080fd5b506101c160048036038101906101bc91906115ae565b610635565b005b3480156101cf57600080fd5b506101ea60048036038101906101e59190611326565b610786565b6040516101f7919061136c565b60405180910390f35b34801561020c57600080fd5b5061022760048036038101906102229190611326565b61079e565b6040516102359291906116f2565b60405180910390f35b34801561024a57600080fd5b5061026560048036038101906102609190611747565b6107e2565b005b34801561027357600080fd5b5061027c6109b6565b6040516102899190611a72565b60405180910390f35b34801561029e57600080fd5b506102b960048036038101906102b49190611a94565b610cc7565b005b3480156102c757600080fd5b506102e260048036038101906102dd9190611326565b610d69565b6040516102ef919061136c565b60405180910390f35b34801561030457600080fd5b5061031f600480360381019061031a91906113f2565b610db2565b60405161032c919061144d565b60405180910390f35b34801561034157600080fd5b5061034a610e46565b6040516103579190611c55565b60405180910390f35b6000600260008373ffffffffffffffffffffffffffffffffffffffff1673ffffffffffffffffffffffffffffffffffffffff168152602001908152602001600020600101549050919050565b6000808273ffffffffffffffffffffffffffffffffffffffff1673ffffffffffffffffffffffffffffffffffffffff16815260200190815260200160002054600260008373ffffffffffffffffffffffffffffffffffffffff1673ffffffffffffffffffffffffffffffffffffffff16815260200190815260200160002060010154141561046f576040517f08c379a000000000000000000000000000000000000000000000000000000000815260040161046690611cd4565b60405180910390fd5b34600460008373ffffffffffffffffffffffffffffffffffffffff1673ffffffffffffffffffffffffffffffffffffffff16815260200190815260200160002060008282546104be9190611d23565b9250508190555034600260008373ffffffffffffffffffffffffffffffffffffffff1673ffffffffffffffffffffffffffffffffffffffff16815260200190815260200160002060010160008282546105179190611d23565b9250508190555060018060008373ffffffffffffffffffffffffffffffffffffffff1673ffffffffffffffffffffffffffffffffffffffff16815260200190815260200160002060003373ffffffffffffffffffffffffffffffffffffffff1673ffffffffffffffffffffffffffffffffffffffff16815260200190815260200160002060006101000a81548160ff0219169083151502179055507fae4ccaaebafd7429d917375073665c7b5f76b6fd002ac9bba803bb7293e6d12d33826040516105e3929190611dd8565b60405180910390a150565b60016020528160005260406000206020528060005260406000206000915091509054906101000a900460ff1681565b60046020528060005260406000206000915090505481565b60056040518060c0016040528088815260200187815260200186815260200185815260200184815260200183815250908060018154018082558091505060019003906000526020600020906006020160009091909190915060008201518160000190805190602001906106a9929190611211565b5060208201518160010190805190602001906106c6929190611211565b5060408201518160020190805190602001906106e3929190611211565b506060820151816003019080519060200190610700929190611211565b50608082015181600401908051906020019061071d929190611211565b5060a082015181600501908051906020019061073a929190611211565b5050507fd2d539788ca901a1ac667183b6ad591da412dae0e1a9037ca6ac3e16e16c3feb86868686868660405161077696959493929190611e3a565b60405180910390a1505050505050565b60006020528060005260406000206000915090505481565b60026020528060005260406000206000915090508060000160009054906101000a900473ffffffffffffffffffffffffffffffffffffffff16908060010154905082565b60036040518060e001604052808981526020018881526020018781526020018681526020018581526020018481526020018373ffffffffffffffffffffffffffffffffffffffff1681525090806001815401808255809150506001900390600052602060002090600702016000909190919091506000820151816000019080519060200190610872929190611211565b50602082015181600101556040820151816002019080519060200190610899929190611211565b5060608201518160030190805190602001906108b6929190611211565b5060808201518160040190805190602001906108d3929190611211565b5060a0820151816005015560c08201518160060160006101000a81548173ffffffffffffffffffffffffffffffffffffffff021916908373ffffffffffffffffffffffffffffffffffffffff1602179055505050816000808373ffffffffffffffffffffffffffffffffffffffff1673ffffffffffffffffffffffffffffffffffffffff168152602001908152602001600020819055507fe4460ded98fc564e9fa089504386570b54a937f75d66e94ab5b24670a95a1431878787878787876040516109a59796959493929190611ec5565b60405180910390a150505050505050565b60606003805480602002602001604051908101604052809291908181526020016000905b82821015610cbe57838290600052602060002090600702016040518060e0016040529081600082018054610a0d90611f7f565b80601f0160208091040260200160405190810160405280929190818152602001828054610a3990611f7f565b8015610a865780601f10610a5b57610100808354040283529160200191610a86565b820191906000526020600020905b815481529060010190602001808311610a6957829003601f168201915b5050505050815260200160018201548152602001600282018054610aa990611f7f565b80601f0160208091040260200160405190810160405280929190818152602001828054610ad590611f7f565b8015610b225780601f10610af757610100808354040283529160200191610b22565b820191906000526020600020905b815481529060010190602001808311610b0557829003601f168201915b50505050508152602001600382018054610b3b90611f7f565b80601f0160208091040260200160405190810160405280929190818152602001828054610b6790611f7f565b8015610bb45780601f10610b8957610100808354040283529160200191610bb4565b820191906000526020600020905b815481529060010190602001808311610b9757829003601f168201915b50505050508152602001600482018054610bcd90611f7f565b80601f0160208091040260200160405190810160405280929190818152602001828054610bf990611f7f565b8015610c465780601f10610c1b57610100808354040283529160200191610c46565b820191906000526020600020905b815481529060010190602001808311610c2957829003601f168201915b50505050508152602001600582015481526020016006820160009054906101000a900473ffffffffffffffffffffffffffffffffffffffff1673ffffffffffffffffffffffffffffffffffffffff1673ffffffffffffffffffffffffffffffffffffffff1681525050815260200190600101906109da565b50505050905090565b8173ffffffffffffffffffffffffffffffffffffffff166108fc829081150290604051600060405180830381858888f19350505050158015610d0d573d6000803e3d6000fd5b5080600460008573ffffffffffffffffffffffffffffffffffffffff1673ffffffffffffffffffffffffffffffffffffffff1681526020019081526020016000206000828254610d5d9190611fb1565b92505081905550505050565b6000600460008373ffffffffffffffffffffffffffffffffffffffff1673ffffffffffffffffffffffffffffffffffffffff168152602001908152602001600020549050919050565b6000600160008373ffffffffffffffffffffffffffffffffffffffff1673ffffffffffffffffffffffffffffffffffffffff16815260200190815260200160002060008473ffffffffffffffffffffffffffffffffffffffff1673ffffffffffffffffffffffffffffffffffffffff16815260200190815260200160002060009054906101000a900460ff16905092915050565b60606005805480602002602001604051908101604052809291908181526020016000905b8282101561120857838290600052602060002090600602016040518060c0016040529081600082018054610e9d90611f7f565b80601f0160208091040260200160405190810160405280929190818152602001828054610ec990611f7f565b8015610f165780601f10610eeb57610100808354040283529160200191610f16565b820191906000526020600020905b815481529060010190602001808311610ef957829003601f168201915b50505050508152602001600182018054610f2f90611f7f565b80601f0160208091040260200160405190810160405280929190818152602001828054610f5b90611f7f565b8015610fa85780601f10610f7d57610100808354040283529160200191610fa8565b820191906000526020600020905b815481529060010190602001808311610f8b57829003601f168201915b50505050508152602001600282018054610fc190611f7f565b80601f0160208091040260200160405190810160405280929190818152602001828054610fed90611f7f565b801561103a5780601f1061100f5761010080835404028352916020019161103a565b820191906000526020600020905b81548152906001019060200180831161101d57829003601f168201915b5050505050815260200160038201805461105390611f7f565b80601f016020809104026020016040519081016040528092919081815260200182805461107f90611f7f565b80156110cc5780601f106110a1576101008083540402835291602001916110cc565b820191906000526020600020905b8154815290600101906020018083116110af57829003601f168201915b505050505081526020016004820180546110e590611f7f565b80601f016020809104026020016040519081016040528092919081815260200182805461111190611f7f565b801561115e5780601f106111335761010080835404028352916020019161115e565b820191906000526020600020905b81548152906001019060200180831161114157829003601f168201915b5050505050815260200160058201805461117790611f7f565b80601f01602080910402602001604051908101604052809291908181526020018280546111a390611f7f565b80156111f05780601f106111c5576101008083540402835291602001916111f0565b820191906000526020600020905b8154815290600101906020018083116111d357829003601f168201915b50505050508152505081526020019060010190610e6a565b50505050905090565b82805461121d90611f7f565b90600052602060002090601f01602090048101928261123f5760008555611286565b82601f1061125857805160ff1916838001178555611286565b82800160010185558215611286579182015b8281111561128557825182559160200191906001019061126a565b5b5090506112939190611297565b5090565b5b808211156112b0576000816000905550600101611298565b5090565b6000604051905090565b600080fd5b600080fd5b600073ffffffffffffffffffffffffffffffffffffffff82169050919050565b60006112f3826112c8565b9050919050565b611303816112e8565b811461130e57600080fd5b50565b600081359050611320816112fa565b92915050565b60006020828403121561133c5761133b6112be565b5b600061134a84828501611311565b91505092915050565b6000819050919050565b61136681611353565b82525050565b6000602082019050611381600083018461135d565b92915050565b6000611392826112c8565b9050919050565b6113a281611387565b81146113ad57600080fd5b50565b6000813590506113bf81611399565b92915050565b6000602082840312156113db576113da6112be565b5b60006113e9848285016113b0565b91505092915050565b60008060408385031215611409576114086112be565b5b600061141785828601611311565b925050602061142885828601611311565b9150509250929050565b60008115159050919050565b61144781611432565b82525050565b6000602082019050611462600083018461143e565b92915050565b600080fd5b600080fd5b6000601f19601f8301169050919050565b7f4e487b7100000000000000000000000000000000000000000000000000000000600052604160045260246000fd5b6114bb82611472565b810181811067ffffffffffffffff821117156114da576114d9611483565b5b80604052505050565b60006114ed6112b4565b90506114f982826114b2565b919050565b600067ffffffffffffffff82111561151957611518611483565b5b61152282611472565b9050602081019050919050565b82818337600083830152505050565b600061155161154c846114fe565b6114e3565b90508281526020810184848401111561156d5761156c61146d565b5b61157884828561152f565b509392505050565b600082601f83011261159557611594611468565b5b81356115a584826020860161153e565b91505092915050565b60008060008060008060c087890312156115cb576115ca6112be565b5b600087013567ffffffffffffffff8111156115e9576115e86112c3565b5b6115f589828a01611580565b965050602087013567ffffffffffffffff811115611616576116156112c3565b5b61162289828a01611580565b955050604087013567ffffffffffffffff811115611643576116426112c3565b5b61164f89828a01611580565b945050606087013567ffffffffffffffff8111156116705761166f6112c3565b5b61167c89828a01611580565b935050608087013567ffffffffffffffff81111561169d5761169c6112c3565b5b6116a989828a01611580565b92505060a087013567ffffffffffffffff8111156116ca576116c96112c3565b5b6116d689828a01611580565b9150509295509295509295565b6116ec816112e8565b82525050565b600060408201905061170760008301856116e3565b611714602083018461135d565b9392505050565b61172481611353565b811461172f57600080fd5b50565b6000813590506117418161171b565b92915050565b600080600080600080600060e0888a031215611766576117656112be565b5b600088013567ffffffffffffffff811115611784576117836112c3565b5b6117908a828b01611580565b97505060206117a18a828b01611732565b965050604088013567ffffffffffffffff8111156117c2576117c16112c3565b5b6117ce8a828b01611580565b955050606088013567ffffffffffffffff8111156117ef576117ee6112c3565b5b6117fb8a828b01611580565b945050608088013567ffffffffffffffff81111561181c5761181b6112c3565b5b6118288a828b01611580565b93505060a06118398a828b01611732565b92505060c061184a8a828b01611311565b91505092959891949750929550565b600081519050919050565b600082825260208201905092915050565b6000819050602082019050919050565b600081519050919050565b600082825260208201905092915050565b60005b838110156118bf5780820151818401526020810190506118a4565b838111156118ce576000848401525b50505050565b60006118df82611885565b6118e98185611890565b93506118f98185602086016118a1565b61190281611472565b840191505092915050565b61191681611353565b82525050565b611925816112e8565b82525050565b600060e083016000830151848203600086015261194882826118d4565b915050602083015161195d602086018261190d565b506040830151848203604086015261197582826118d4565b9150506060830151848203606086015261198f82826118d4565b915050608083015184820360808601526119a982826118d4565b91505060a08301516119be60a086018261190d565b5060c08301516119d160c086018261191c565b508091505092915050565b60006119e8838361192b565b905092915050565b6000602082019050919050565b6000611a0882611859565b611a128185611864565b935083602082028501611a2485611875565b8060005b85811015611a605784840389528151611a4185826119dc565b9450611a4c836119f0565b925060208a01995050600181019050611a28565b50829750879550505050505092915050565b60006020820190508181036000830152611a8c81846119fd565b905092915050565b600080600060608486031215611aad57611aac6112be565b5b6000611abb868287016113b0565b9350506020611acc868287016113b0565b9250506040611add86828701611732565b9150509250925092565b600081519050919050565b600082825260208201905092915050565b6000819050602082019050919050565b600060c0830160008301518482036000860152611b3082826118d4565b91505060208301518482036020860152611b4a82826118d4565b91505060408301518482036040860152611b6482826118d4565b91505060608301518482036060860152611b7e82826118d4565b91505060808301518482036080860152611b9882826118d4565b91505060a083015184820360a0860152611bb282826118d4565b9150508091505092915050565b6000611bcb8383611b13565b905092915050565b6000602082019050919050565b6000611beb82611ae7565b611bf58185611af2565b935083602082028501611c0785611b03565b8060005b85811015611c435784840389528151611c248582611bbf565b9450611c2f83611bd3565b925060208a01995050600181019050611c0b565b50829750879550505050505092915050565b60006020820190508181036000830152611c6f8184611be0565b905092915050565b600082825260208201905092915050565b7f5441524745542052454143484544000000000000000000000000000000000000600082015250565b6000611cbe600e83611c77565b9150611cc982611c88565b602082019050919050565b60006020820190508181036000830152611ced81611cb1565b9050919050565b7f4e487b7100000000000000000000000000000000000000000000000000000000600052601160045260246000fd5b6000611d2e82611353565b9150611d3983611353565b9250827fffffffffffffffffffffffffffffffffffffffffffffffffffffffffffffffff03821115611d6e57611d6d611cf4565b5b828201905092915050565b6000819050919050565b6000611d9e611d99611d94846112c8565b611d79565b6112c8565b9050919050565b6000611db082611d83565b9050919050565b6000611dc282611da5565b9050919050565b611dd281611db7565b82525050565b6000604082019050611ded60008301856116e3565b611dfa6020830184611dc9565b9392505050565b6000611e0c82611885565b611e168185611c77565b9350611e268185602086016118a1565b611e2f81611472565b840191505092915050565b600060c0820190508181036000830152611e548189611e01565b90508181036020830152611e688188611e01565b90508181036040830152611e7c8187611e01565b90508181036060830152611e908186611e01565b90508181036080830152611ea48185611e01565b905081810360a0830152611eb88184611e01565b9050979650505050505050565b600060e0820190508181036000830152611edf818a611e01565b9050611eee602083018961135d565b8181036040830152611f008188611e01565b90508181036060830152611f148187611e01565b90508181036080830152611f288186611e01565b9050611f3760a083018561135d565b611f4460c08301846116e3565b98975050505050505050565b7f4e487b7100000000000000000000000000000000000000000000000000000000600052602260045260246000fd5b60006002820490506001821680611f9757607f821691505b60208210811415611fab57611faa611f50565b5b50919050565b6000611fbc82611353565b9150611fc783611353565b925082821015611fda57611fd9611cf4565b5b82820390509291505056fea264697066735822122019deb7f2db82adeb54f17c4f384d31718bd38fd28c280e3722100f56d8b2136d64736f6c63430008090033",
  "linkReferences": {},
  "deployedLinkReferences": {}
}